:020000040800F2
:10000000002000101D630008856300088563000858
:100010008563000885630008856300080000000010
:1000200000000000000000000000000085630008E0
:100030008563000800000000856300082D13000898
:1000400085630008856300088563000885630008F0
:1000500085630008856300088563000885630008E0
:1000600085630008856300088563000885630008D0
:100070008563000885630008B112000885630008E5
:1000800085630008E51200088563000885630008A1
:1000900085630008856300088563000885630008A0
:1000A0008563000885630008856300088563000890
:1000B0002513000885630008856300088563000830
:1000C0008563000885630008856300088563000870
:1000D0008563000885630008856300088563000860
:1000E0008563000885630008856300088563000850
:1000F0008563000885630008856300088563000840
:1001000000000000000000000000000085630008FF
:10011000856300088563000885630008856300081F
:10012000856300088563000885630008856300080F
:1001300085630008856300080000000000000000DF
:1001400085630008856300088563000800000000DF
:10015000000000000000000000000000000000009F
:1001600000000000000000008563000885630008AF
:10017000856300080000000000000000000000008F
:08018000000000008563000887
:1001C000024B012218609A80704700BF6C07002024
:1001D000014B1B68184700BF6807002010B40B4B89
:1001E0005A791968895CFF2906D100209871187125
:1001F00010BC1860FFF7ECBF42F21074013204FB30
:1002000001015A7110BC9960704700BF6C07002053
:1002100038B5154C2379054633B1236823B1A2794B
:100220001AB1A368AB4211D938BDA2689042FBD382
:1002300062790120A0719B5C0BB1FFF7C9FF2846D2
:10024000FFF7CCFFA379002BEED0EAE763792268B1
:100250000020A071D35C0BB1FFF7BAFF2846BDE8C0
:100260003840FFF7BBBF00BF6C070020024600B15B
:10027000012202484FF4004103F082B80008004810
:100280002DE9F041DFF83C800C4D0D4E00242B7819
:10029000002BFCD058F8047B384605F0D1FF80B223
:1002A000706001210648F760013404F080FF0023EC
:1002B000072C2B70EBD1BDE8F08100BF04000020BB
:1002C00044000240AC670008154B2DE9F0411D4683
:1002D0001A78002AFCD01348134E144FDFF85080D0
:1002E00001F000FD01F00EFD0124610001F0FE01AE
:1002F000304600F096FD01280DD12B78002BFCD064
:10030000384601F0EFFC204601F0F4FC404601F0D5
:10031000E9FC01F0F7FC01347F2CE6D1BDE8F08167
:1003200004000020C867000800540040FB67000874
:10033000406900082DE9F04788B000F0FFFF2B4C22
:100340002B4D2C4E2C4F012323602B6033603B60E0
:10035000804600F075FF4FF47A7000F0F5FF41F22F
:10036000873A40F26B7900F0E9FFA0EB08005045B6
:100370000FD9039B4B450CDD40F26C72934215D1B3
:1003800040F2D93323602B6033603B6008B0BDE896
:10039000F0874FF47A7001F053FD684601F070FD6C
:1003A000039801F0A7FC01F0ADFCDCE700F0C6FF0C
:1003B000DFF848A0804642F20F7900F0BFFFA0EBC3
:1003C00008004845DCD8684601F05AFD03982060D3
:1003D00028603060386001F08DFC504601F082FCEE
:1003E00001F090FC00F02CFFE7E700BF000D0020BB
:1003F000900C0020800B0020980B00203F69000823
:10040000F8B5164E164F002533689847044668B96C
:10041000702D1BD011D8612D16D0622D12D04FF443
:10042000FA6001F00DFD002CEED0F8BD736898471E
:1004300005460A2000F088FFE6E7A5F171035C425B
:100440005C41ECE7FFF740FF2546E8E7384601F05E
:1004500049FC01F057FCFFF76DFFF5E7780000203D
:100460000D68000870B50E4A0E4E0F4D0F4C4FF43C
:10047000FA6333602B602360136000F0E1FE4FF4F9
:10048000FA5000F061FF4FF47A7333602B60236001
:1004900000F0D6FEBDE870404FF4FA5000F054BFB3
:1004A000980B0020000D0020900C0020800B0020F5
:1004B00038B5044608462568294605F079FB616889
:1004C00005F080FC294605F075FB206038BDF8B5C5
:1004D00004460E460168304605F074FC616905F07B
:1004E00069FB61680546304605F06CFCE16807462B
:1004F000284605F067FC0146384605F059FBA1691E
:1005000005F058FBA1686061304605F05BFC21698D
:100510000646284605F056FC0146304605F048FBE5
:10052000A0612846F8BD2DE9F0410D46044601685A
:10053000D0F81480C769284605F044FC6168064677
:10054000404605F03FFC0146304605F033FBA1690B
:100550000646A06805F036FC0146304605F02AFB49
:10056000E1680646384605F02DFC0146304605F0A8
:100570001FFB216A0646206905F024FC014630462F
:1005800005F016FBC4F8188065612762E061BDE8DC
:10059000F0810846704710B50C4604F091FF0AA39D
:1005A000D3E9002304F0F6FF02460B460020084979
:1005B00005F01AF905F0A8FA214605F0FBFA014604
:1005C000204605F0B3FC10BD00000060FB2119407F
:1005D0000000F03F0E4B0F4A10B51A600E4A948887
:1005E000A4B10E4A1A600E4B186805F093FB0D4932
:1005F00005F0E8FB01462046FFF7CDFF0A4B00223D
:100600001A6058609A60D8601A61586110BD00BFC6
:100610008C07002093050008820B0020B10400081D
:10062000080C0020BD378635740A002000230360C3
:10063000416070472DE9F74F0546084650499DF83F
:1006400030401746984605F0BDFB0646384605F093
:1006500061FB0146304605F0B5FB4A4905F0B2FBA7
:10066000074601F0B7FA0646384601F029FB414635
:100670000746404605F09EFA0146304605F056FC16
:10068000012C81464FF0000643D0022C58D0002C9C
:100690006ED139464FF07E5005F08AFA4FF07C510A
:1006A000804605F08FFB4FF07E518346484605F0AB
:1006B00081FA4FF040410446384605F083FB494635
:1006C00082464FF07E5005F073FA5B46074621469E
:1006D0005846019305F02AFC21462860404605F063
:1006E00025FC019B68602146184605F01FFC214649
:1006F000A860504605F01AFC2146E860384605F02F
:1007000015FCAE6128616E612E62EE6103B0BDE83A
:10071000F08F4FF04041384605F054FB4FF07E51CA
:100720008046484605F046FA494604464FF07E505A
:1007300005F03EFA4FF07E530746C2469B46C6E799
:1007400000F100434FF07E51019305F033FA4FF072
:1007500040410446384605F035FB494682464FF095
:100760007E5005F025FACB46019B0746B046AEE722
:100770003746B24634463346B046B346A7E700BFD5
:10078000DB0FC940BD3786351E4B2DE9F7431E4AA6
:100790001A6028B11D4CA279274622B1012A18D02F
:1007A00003B0BDE8F0831A4A1A601A4B186805F0C6
:1007B000B1FA194905F006FB01462089FFF7EBFE67
:1007C000164B00221A6058605A6298629A64D86484
:1007D000E6E7134A114D0F4EDFF848801A600024F7
:1007E000A146388905F096FA013401463268CDF801
:1007F000009028464346FFF71DFF032C05F1240512
:10080000EFD1CDE78807002093050008820B002078
:10081000B1040008080C0020BD3786358C0A002082
:10082000CF040008F304353F2DE9F7439DF82890E5
:100830000D4616461F46044600F16C082046CDF8CA
:1008400000903B46324629462434FFF7F3FE4445E8
:10085000F4D103B0BDE8F0832DE9F74317461D46F8
:1008600021B1012936D003B0BDE8F08300F1440680
:1008700000F14804264B274AD3F80080326099469D
:10088000002DF0D0404604F00BFE02460B461EA1A0
:10089000D1E9000104F0A8FF05F016F98542E2D87D
:1008A000EFB1012FDFD11C4B1C4F33604FF000081C
:1008B00004F16C06284605F02DFACDF800800146BB
:1008C000D9F8002020463B462434FFF7B3FEB4425B
:1008D000F0D1C8E700F1B40600F1B804CAE7404619
:1008E00005F018FA0E4905F06DFA01462846FFF7A3
:1008F00052FE0C4B33600023236060606362A06291
:10090000A364E064AFE700BF0000000080841E41E4
:10091000080C002093050008CF040008F304353FBD
:10092000BD378635B10400082DE9F3410F4AC0F800
:1009300004220F4A127BAAB10E4A0F4FDFF8408003
:100940000E4EC0F8042200F5027500F51D74012357
:10095000009328463A68434631462435FFF76AFE3D
:10096000A542F4D102B0BDE8F08100BF93050008B4
:10097000680B002027050008080C00200000C84371
:1009800085F99D4138B50E4B044618680D4604F0B4
:1009900087FD02460B4608A1D1E9000104F024FFBF
:1009A00005F092F8844203D9854234BF84B2002412
:1009B000204638BDAFF300800000000080841E4157
:1009C000080C002070B50E46054605F0FBF92946D7
:1009D0000446284605F0F6F931460546304605F04E
:1009E000F1F90146284605F0E3F80146204605F0F6
:1009F0009DFA70BDF7B5184C184B2360184B18883A
:100A000040B35D8835B32946FFF7BCFF154B236023
:100A100005F080F90446284605F07CF90146204699
:100A2000FFF7D0FF104E01270546034632680F48F6
:100A300000972146FFF7FEFD32680D4800972B46D0
:100A40002146FFF7F7FD32680A4800972B462146FA
:100A5000FFF7F0FD03B0F0BD700A00209305000819
:100A6000820B0020CF040008080C0020040A00209C
:100A7000280A00204C0A00202DE9F7430446174BB2
:100A8000C4F82431084611461546FFF77BFF10B322
:100A90000DB3134BC4F8243105F03CF90646284643
:100AA00005F038F901463046FFF78CFFDFF8348057
:100AB00004F59475074604F5CA744FF001092846F9
:100AC000D8F80020CDF800903B4631462435FFF79A
:100AD000B1FDA542F3D103B0BDE8F0839305000852
:100AE000CF040008080C00202DE9F7430446174BFB
:100AF000C4F89431084611461546FFF743FF10B37A
:100B00000DB3134BC4F8943105F004F9064628469A
:100B100005F000F901463046FFF754FFDFF8348056
:100B200004F5CC75074604F501744FF00109284619
:100B3000D8F80020CDF800903B4631462435FFF729
:100B400079FDA542F3D103B0BDE8F0839305000819
:100B5000CF040008080C002038B50E4C0546238849
:100B6000627B0021FFF778FE6388A27B2846012183
:100B7000FFF772FEE288A1882846FFF77DFF28462E
:100B800062892189FFF7B0FF2846BDE83840FFF7AA
:100B9000CBBE00BF680B002010B510208AB01B4CE4
:100BA00002F050FE01214FF4001002F003FF204636
:100BB0000422062102F0EBFB20460422072102F06A
:100BC000E6FB134B2046134CC02201A9CDE90123BB
:100BD00002F06EFB204603F0CFFA0023CDE9083384
:100BE000CDE90433CDE9063303A90B4B039320462B
:100BF00003F0DEFA2046012103F015FB0122442117
:100C0000204603F023FB0AB010BD00BF00040048DB
:100C100002030100005400407A25E000704710B53F
:100C2000154C8CB0204604F01DFA144A0292802222
:100C3000002306920E22CDE9083303930B93ADF8FF
:100C4000102007930E4A059301A94FF40053204644
:100C50000A93019204F080FA01222046022104F056
:100C6000B6FA0121204604F0A2FA064B009368462A
:100C700003F08AF90CB010BD800002407807002014
:100C8000245400401105050173B504460D461C4867
:100C90001C4E0E2104F096FA1948012104F087FA3F
:100CA0004FF40041304603F0F2FB03460028F7D131
:100CB0004FF40052A4B200921248124E0122214673
:100CC00003F06FFB0221304603F0E1FB0028F9D06E
:100CD00029460C480B4D03F0D3FB4021284603F076
:100CE000D6FB0028F9D04FF41053009305484FF07D
:100CF00000730E22214603F054FB02B070BD00BF0A
:100D00008000024000540040F7B504460D461746E7
:100D10001E464FF40041204603F0B9FB0028F8D1ED
:100D20004FF40053ADB2009301224FF08073294677
:100D3000204603F036FB0221204603F0A8FB0028E2
:100D4000F9D03946204603F09BFB8021204603F072
:100D50009EFB0028F9D00023009301224FF000737E
:100D60002946204603F01DFB0221204603F08FFB9D
:100D70000028F9D03146204603F082FB202120468E
:100D800003F085FB0028F9D02021204603B0BDE800
:100D9000F04003F082BB73B504460D4616464FF48F
:100DA0000041204603F073FB03460028F7D14FF4BF
:100DB0000052ADB2009229460122204603F0F1FA1A
:100DC0000221204603F063FB0028F9D0314620467B
:100DD00003F056FB4021204603F059FB0028F9D0D0
:100DE0004FF41053009301224FF000732946204620
:100DF00003F0D7FA0421204603F049FB0028F9D07C
:100E0000204603F03FFB05462021204603F03FFB30
:100E10000028F9D02046202103F03FFB284602B0ED
:100E200070BD13B50022044600924FF0007303F02A
:100E3000B8FA3021204603F030FB0121204603F0B0
:100E40007FFA2021204603F022FB0028F9D0102150
:100E5000204603F01CFB30B12046302103F01DFB7F
:100E6000002002B010BD2046202103F016FB012017
:100E7000F7E72DE9F341089F04460E4690461D46CC
:100E80004FF40041204603F002FB03460028F7D14F
:100E90004FF40052B6B2009231460122204603F0D0
:100EA00080FA0221204603F0F2FA0028F9D04146E8
:100EB000204603F0E5FA4021204603F0E8FA002836
:100EC000F9D04FF4105300932A464FF00073314687
:100ED000204603F066FA0421204603F0D8FA0028E1
:100EE000F9D03D44AF420CD12021204603F0CFFA87
:100EF0000028F9D02021204602B0BDE8F04103F0DF
:100F0000CCBA0421204603F0C2FA0028F9D02046CA
:100F100003F0B8FA07F8010BE4E700BF0000000097
:100F200008B504F0FBFE054904F04CFF01464FF004
:100F30007E5004F0FBFF024B186008BDBD378635BC
:100F4000F804002001282DE9F0410D46144634DC58
:100F500023F0004004F0C6FA194B002204F044FCD0
:100F600002460B460020174904F05CF900220023DA
:100F700006460F4604F080FD08B100260027002138
:100F80002846D4F8008005F0BBF820B10021404687
:100F900005F0D4F888B90021284605F0CFF820B133
:100FA0000021404605F0ACF838B93946304604F027
:100FB000ABFD414604F006FF2060BDE8F08100BFB4
:100FC000000044400000F03F2DE9F74F304CDFF8BF
:100FD000CC80304D304EEB464FF0000A40F2E557E2
:100FE00040F2D2594FF000032BF8023B54F8043B77
:100FF000BB4204DDA3F2DC532BF8023C01E04B457D
:10100000F8DD3BF9021CB1F5FA7F0846A8BF4FF4A2
:10101000FA704045B8BF4046BAF1020F31D00029FE
:101020001FDA404240F3C81303F1010C81B256F8B5
:101030002C2056F82300A1EBC313A2EB000C03FBFA
:101040000CF300EBD310404200B204F067FE45F809
:101050002A000AF1010ABAF1030FC3D103B0BDE8B7
:10106000F08FC11101F1010C56F8213056F82C20F7
:10107000A0EBC110A2EB030C00FB0CF003EBD010B3
:10108000E2E704F04BFE00F10040A860E1E700BF9A
:10109000280D0020D00C0020DC0C00200CFEFFFFEF
:1010A000134B1449B3F90C30B3F5FA6FA8BF4FF4E2
:1010B000FA6340F21A429342B8BF1346A3F21A42AF
:1010C00040F6FF13534340F2B632B3FBF2F3C3F3DF
:1010D000072010B5441C51F8202051F82410A3EB30
:1010E0000023891A4B4302EB1323034A138010BDDC
:1010F000280D0020D80B0020D40B0020404B2DE9F8
:10110000F74F404C1888DFF80891DFF808B104F079
:1011100005FE636801931946074604F049FD2568FA
:10112000A46806460146284604F044FD214604F022
:101130003FFD05F049F81FFA80FA2946A9F800A0FA
:10114000304604F035FD214604F034FD05F03CF84E
:10115000019B2D4E1FFA80F81946ABF800803846E7
:1011600004F028FD2946019004F022FD214604F0F8
:101170001FFD05F029F8019B87B2194637802846E4
:1011800004F018FD214604F015FD05F01DF840F2AD
:10119000C672924588BFA9F80020904588BFABF879
:1011A000002040F2C672194B974281B288BF32804C
:1011B0009142198088BF1A80B9F80020B2F57A7F71
:1011C0003CBF4FF47A72A9F80020BBF80020B2F5BA
:1011D0007A7F3CBF4FF47A72ABF800203288B2F5C8
:1011E0007A7F3CBF4FF47A7232801A88B2F57A7FE8
:1011F0003CBF4FF47A721A8003B0BDE8F08F00BF95
:10120000D40B00208C0B0020800B0020980B0020BA
:10121000000D0020900C0020054A40F2D9331380C5
:10122000044A1380044A1380044A1380704700BFA5
:10123000000D0020900C0020800B0020980B002057
:10124000074B1A88074B5A63074A12889A63074B61
:101250001A88074B5A63074A12889A63704700BF7F
:10126000000D002000040040900C0020800B0020A6
:1012700000080040980B0020054A536943F0010321
:101280005361A2F58062536943F0010353617047D3
:1012900000080040034B044A99695163DA69034B23
:1012A0005A637047280D0020004401400048014067
:1012B00008B54FF4005003F094FF68B14FF40050AC
:1012C00003F09EFF0021054803F071FF044B1A68EC
:1012D0000021118001221A7108BD00BF44000240A4
:1012E0000000002008B54FF0007003F07AFF90B1C5
:1012F0000948202103F0D1F8084A09485379002110
:1013000043F04003537103F052FFBDE808404FF033
:10131000007003F075BF08BD00540040F8040020C1
:10132000800002404FF080431B6C7047024A1368F4
:1013300001331360704700BF140D0020014B186883
:10134000704700BF140D0020034B19681A68521A29
:101350008242FBD3704700BF140D0020074B9A68F0
:10136000074B19684FF47A7301FB03334821B2FB32
:10137000F1F29B1A034A13601068704710E000E016
:10138000140D0020D00B00204FF482730380A023A3
:101390004380C823838000238371642303817047C3
:1013A00070B5374C80236B22D0212046FFF7ACFC70
:1013B0006420FFF7C9FF00236822D0212046FFF7F1
:1013C000A3FC6420FFF7C0FF204601236B22D0213D
:1013D000FFF79AFC204600231A22D021FFF794FC45
:1013E00000231922D0212046FFF78EFC0A20FFF7A8
:1013F000ABFF1B22D0212046FFF7CDFC1B22054668
:1014000000F01F03D0212046FFF77EFC05F0E70324
:1014100020461B22D021FFF777FC45F01803DBB2F2
:1014200020461B22D021FFF76FFC1C22D021204632
:10143000FFF7B1FC1C22054600F01F03D021204617
:10144000FFF762FC05F0E70320461C22D021FFF7DE
:101450005BFC45F010032046DBB21C22D021FFF7D5
:1014600053FC204602233722D021FFF74DFC2046B3
:101470000123BDE870403822D021FFF745BC00BFF2
:101480000054004010B5074C94F90530002B07DBE1
:101490003B21D020FFF7F8FB637943F080036371B1
:1014A00010BD00BFF804002038B50F4B188A04F0B7
:1014B00007F80BA3D3E9002304F06CF80B4B0446A8
:1014C00018680D4603F0ECFF02460B4620462946FD
:1014D00004F08AF904F0F8FA38BD00BFAFF30080D9
:1014E0000000000080842E41680B0020080C0020C2
:1014F000044B10B55C6FFFF7D7FF231A58425841D1
:1015000010BD00BF080C0020024B586F431E58420C
:1015100058417047080C002008B5FFF7C5FF014B84
:10152000586708BD080C0020F8B505460C46FFF7C3
:1015300037FF4FF4FA732B6000273023012685F81C
:1015400080702682A5F87830FFF7E6FFAA22628035
:101550004FF4C872A2804FF496726423E280C822CE
:10156000238022816381A781A673F8BD2DE9F04114
:1015700006690136012E04460D46066105D1002399
:10158000416001608360BDE8F081D0F800802846AA
:10159000414604F00DFB0746304604F0BFFB014610
:1015A000384604F0C3FC414604F004FB01460646FD
:1015B0006060284604F0FCFA394604F003FCA16898
:1015C00004F0F8FA2660E060A060DCE710B504469D
:1015D0000069012807DD013804F0A0FB0146E0683E
:1015E00004F0A4FC10BD0020FCE708B5FFF7EEFFF7
:1015F000BDE8084004F06CBF2DE9F84F2F4CDFF830
:10160000C480A4F1200704F11806B2463D464FF00D
:10161000000BFFF76DFF38B100230022C4E900235F
:1016200000233361C7F810B038F9029B484603F035
:1016300047FF0B460246D4E9000103F0F5FDC4E97B
:101640000001484604F06AFB01463046FFF78EFF72
:101650006B6F012B1DD13046FFF7C7FF8146B5F8F0
:10166000780048B104F05AFB494604F049FD18B12E
:10167000BDE8F84FFFF750BFFFF716FF03F010FF6C
:1016800002460B46D4E9000104F0AEF804F03CFA3F
:1016900038610834544507F1040706F11406B8D13F
:1016A0006C6F012C04D10648FEF78AFD85F8804056
:1016B0006B6F013B6B67BDE8F88F00BF280C002003
:1016C00088670008FE04002003468B42084603DBBF
:1016D0009342A8BF13461846704770B506460C469D
:1016E000154604F00DFD28B92946304604F026FDC4
:1016F00010B93446204670BD2C46FBE7064B43220A
:101700000021C3E90012B02040F27312C3E90202C3
:1017100040F2B6221A617047DC0C00202DE9F04738
:10172000184B194E597993F905009F7993F8078062
:1017300064254A42C1F1780411FB05F5C7F10A0995
:1017400010FB00F0D2B2E4B240F2EF2E42F2107C75
:101750004FFA82FA1AFB0AF37B4393FBF0F34B44F4
:1017600043445B1A0A320AFB0353D2B20EFB03F363
:101770009442B3FBFCF303F24C4346F8043BE7D13D
:10178000BDE8F08700000020D80B0020184B1A6934
:101790006FF4787011181A2910D816494A7942F056
:1017A00010024A715B696FF478715A181A2A13D8BB
:1017B000104B1A796FF3C7121A717047A2F26D724B
:1017C0006C2AEFD80B4A117941F00201117151795D
:1017D00021F018015171E5E76FF4B9621344262B2B
:1017E0009FBF044A137943F080031371704700BF11
:1017F000280D0020F8040020114B124AD86840F24E
:101800004553984210B5104C05DC642353614FF0EA
:101810007E53236010BDB0F5FA6FBDBFA0F24653F2
:10182000562058430E20BEBF084B90FBF3F06430A7
:10183000506104F073FA064904F078FB2060E9E790
:10184000280D0020F8040020480D002076FDFFFF41
:101850000000C8422DE9F041D0F800800C46054652
:101860004146404604F0AEFA6F6820603946404673
:1018700004F0A8FAAE6860603146404604F0A2FA6F
:10188000ED68A0602946404604F09CFA3946E060C5
:10189000384604F097FA31462061384604F092FA4F
:1018A00029466061384604F08DFA3146A061304621
:1018B00004F088FA2946E061304604F083FA2946AC
:1018C0002062284604F07EFA6062BDE8F0812DE9CE
:1018D000F84F354C354D04F1080104F13000FFF7A5
:1018E000B9FF616A084604F065F9E16A06460846F0
:1018F00004F060F9314607464FF07E5004F058F985
:10190000394604F055F9D4F81C80D4F814B0286096
:101910005946404604F04CF9014604F04BF9D4F81E
:101920002090D4F810A068605146484604F042F96F
:10193000014604F03FF95946A860404604F03AF9E0
:10194000014604F037F9A169E860084604F032F96D
:1019500001464FF07E5004F02BF93946804604F0E2
:1019600027F9A76AE46828612146384604F020F97F
:10197000014604F01FF951466861484604F018F921
:10198000014604F017F92146A861384604F012F91F
:10199000014604F00FF93146E861404604F008F9C9
:1019A0002862BDE8F88F00BF00000020A00C0020D6
:1019B0002DE9F84321F0004520F0004806460F4687
:1019C0002846414604F0BAFB00285DD14446002178
:1019D000204604F08BFB00285AD14146284604F0EB
:1019E0008FFB002852D14046214604F09FFA04465E
:1019F0002849204604F0E6F9274904F0D9F82146A1
:101A000004F0E0F9254904F0D3F8214604F0DAF9AE
:101A1000234904F0CDF8214604F0D4F9214904F01B
:101A2000C7F8214900F10049204604F0CBF91F49CD
:101A300004F0C0F8214604F0C5F94FF07E5104F0DF
:101A4000B9F80146484604F071FA41460446284672
:101A500004F056FB20B12146154804F0A9F80446CD
:101A60000021384604F04CFB20B12146114804F017
:101A70009FF804460021304604F042FB08B104F10F
:101A800000442046BDE8F8832C46A0E72846ABE793
:101A90000024ADE739094E3DE3B59E3E88FA163E77
:101AA00045FE7F3FA7DFA83499FB243F69A2163E7D
:101AB000DB0FC93FDB0F494070B520F000442146E1
:101AC00005464FF07E5004F073F804F001FD124912
:101AD0000646204604F076F9104904F06BF82146DA
:101AE00004F070F90E4904F063F8214604F06AF935
:101AF0000C4904F05FF8314604F064F90021044613
:101B0000284604F0FDFA20B12146074804F050F8B9
:101B10000446204670BD00BF306E99BC2716983D24
:101B20008434593EA40DC93FDB0F4940F8B5234C1E
:101B3000234F216AE069234DFFF73AFF224904F061
:101B400041F904F037FC04F0E9F820490646386C06
:101B500004F038F90146304604F02AF804F00EFB90
:101B60002860A06900F10040FFF7A6FF0146184871
:101B700004F01EF8144904F025F904F01BFC04F0ED
:101B8000CDF812490646786C04F01CF9014630463F
:101B900004F00EF804F0F2FA21686860E068FFF7DC
:101BA00007FF094900F1004004F00CF904F002FCC1
:101BB0000028B8BF00F56160A860F8BDA00C002047
:101BC00000000020C40C00204C3D0F4400002041C8
:101BD000DB0FC93F70B5044604F0D0FA203040282E
:101BE0005BD82F4D2F4E2946204604F0A7FA002837
:101BF0003AD12D4D2B4E2946204604F081FA00287B
:101C000038D12A49204604F099FA002838D02749CB
:101C1000204603F0CDFF0146244803F0C9FF0446E7
:101C20002146204604F0CEF80021054604F0CAF80B
:101C30001F4903F0BDFF294604F0C4F81D4903F015
:101C4000B9FF294604F0BEF81B4903F0B1FF29464D
:101C50000646204604F0B6F80146304604F0B2F8D5
:101C6000214603F0A7FF70BD2046314603F0A0FFD8
:101C70000446B8E72046314603F09CFF0446BAE725
:101C80000E49204604F03CFA0028C9D007492046F6
:101C900003F090FF01460948BFE70020E3E700BFDB
:101CA000DB0F4940DB0FC940DB0F49C0DB0FC93FE9
:101CB00092E741399730083C15A82A3EDB0FC9BF8F
:101CC00008B5034903F076FFBDE80840FFF782BF7F
:101CD000DB0FC93F024B1A68996C01F012BA00BFC2
:101CE00000000020024B1A68996C01F053BA00BF43
:101CF00000000020024B1A68996C01F0E7B900BFA0
:101D00000000002008B5064B06481B884360064BC0
:101D1000C360012103F04BFA044B00221A7108BD85
:101D2000D60B0020440002401005002000000020D7
:101D300040494148414A70B50C6892F8123190F818
:101D40004C50A4F2DF3440F2FA36B4424C6840F210
:101D5000FA36A4F2DF3494BF2B43AB43B4428C6811
:101D600090F84D50A4F2DF3440F2FA3694BF2B4382
:101D7000AB43B442CC6890F84E50A4F2DF3440F24A
:101D8000FA3694BF2B43AB43B4420C6990F84F50E2
:101D9000A4F2DF3440F2FA3694BF2B43AB43B44293
:101DA0004C6990F85050A4F2DF3440F2FA3694BFF8
:101DB0002B43AB43B44290F851508C69C96994BF2E
:101DC0002B43AB43A4F2DF3490F8525090F8530009
:101DD00040F2FA36B442A1F2DF3140F2FA3494BF55
:101DE0002B43AB43A14294BF03438343FF2B82F8B1
:101DF000123109D1137923F0180343F0080313714A
:101E00000023A2F8143170BDB2F81431B3F5FA7F93
:101E10009CBF0133A2F81431B2F81431B3F5FA7F44
:101E2000F1D31379190742BF23F0180343F01003CD
:101E30001371E8E7280D002000000020F8040020BE
:101E4000F8B50C4E0C4D31680C4C296007463368D0
:101E50002A689B1ABB42A38A9BB203D343F00803B0
:101E6000A382F8BD83F00803A3826420FFF76CFA15
:101E7000EDE700BF140D00209C0B0020000400487B
:101E80002DE9FF47184A6C46034602F11007264623
:101E900010685168254603C50832BA422C46F7D16E
:101EA000DFF84890DFF848801D1F03F11C0455F847
:101EB000040F36F902AB03F031FF494603F082FF0D
:101EC0000746504603F02AFF414603F07BFF0146D8
:101ED000384603F06FFE04F06DFAAC422860E6D19C
:101EE00004B0BDE8F08700BFF00C0020CDCC4C3F23
:101EF000CDCC4C3E38B50C4D0C4C2B68984768B98E
:101F000094F81631522B01D100F0C2FF94F816312B
:101F1000432B08D1BDE83840FEF772BA6B6898478A
:101F200084F81601E9E738BD78000020F8040020A5
:101F300008B5094B1B7973B1084B1868FFF7DAFE37
:101F4000074B1868FFF7D6FE0648FFF7CBFEBDE843
:101F50000840FFF7D7BE08BD000000207C0B002022
:101F6000180D00204069000810B5204C62792379D3
:101F700012F0100211D013F0010104D094F81721CF
:101F8000013284F8172194F81721322A07D931B188
:101F9000627942F00802627101E084F8172103F0CF
:101FA0002203222B0FD1124BDB68B3F57F7F0ADAB5
:101FB0002379104823F0270343F001034022002136
:101FC000237104F049FB637919070DD52379DA07EA
:101FD0000AD5074AD16840F219429142DEBF23F088
:101FE000250343F02403237110BD00BFF804002033
:101FF000280D00201006002008B5FFF721F9BDE8E4
:102000000840FFF747B92DE99F48DFF838A3C048DB
:10201000FFF736FFFFF78CFE9AF804301A0740F1FD
:102020003082FFF7B3FBFFF79FFFFFF72BFAFEF7B6
:10203000CBFFFFF735F8FFF7DFFB9AF80530B54D1A
:1020400013F0400F6BD0B44BDFF82C831A785F7815
:10205000DC785E79997993F809B0D87A93F80D9085
:1020600047EA02279A7844EA02241A7946EA0226C5
:10207000DA7942EA0122AAF812201A7A4BEA022BF4
:102080009A7A40EA02201A7B98F8803049EA0229BD
:10209000644240423FB236B20FFA8BFB0FFA89F925
:1020A00024B200B2AAF81060AAF80A90AAF80C406C
:1020B000AAF80E70AAF80600AAF808B0002B00F0E3
:1020C000D28103F02BFED8F8101003F071FD2860C8
:1020D000584603F023FED8F8141003F069FD686039
:1020E000484603F01BFED8F81810DFF83C8203F0D6
:1020F0005FFDA860204603F011FEC8F800003846D6
:1021000003F00CFEC8F80400304603F007FEC8F8E0
:1021100008009AF8053003F03F038AF80530FFF70E
:102120001DF97E497E4E7F4CDFF85092804628682C
:1021300003F0FCFE7949CAF85801686803F0F6FE1E
:102140007649CAF85C01A86803F0F0FE06F12403A2
:10215000CAF86001009306F10C0B1D46A4F59477B4
:1021600056F8041BD7F8243120469847D7F8943105
:102170002860014604F1700098477B6C45F8040B19
:102180000146A4F1E0009847D7F8B43045F8040CB4
:102190000146A4F170009847A96845F8040C019025
:1021A00003F008FD4FF07C5103F00CFE019B49F851
:1021B000040B5E45AB6004F12404D1D15A4C5B485A
:1021C0002168DFF8BC915A4F5A4EFEF780F96168DA
:1021D000CAF894015848FEF77AF9A168CAF898013C
:1021E0005648FEF774F9CAF89C01404600F09EFC80
:1021F000534B0193A9F188050024009B57F804BBB9
:1022000053F8048B00934146584603F0D1FC4D4BE4
:1022100093F90420C3F81801002A20DA022C1ED0FA
:102220004949584603F06CFF002840F01F81474998
:10223000584603F083FF002840F01B81444A47F8CA
:1022400004BC52F8240003F069FD0146584603F02F
:10225000AFFC414603F0ACFC3A4BC3F81801394AD5
:10226000E969D2F81831C2F8AC31204657F8043C7D
:1022700002F5D672FEF766FE324AB068D2F8AC11AB
:1022800003F0A0FD0146E86903F094FC022CE8612C
:102290000FD1274B2F49D3F80880404603F044FF65
:1022A00020B92D49404603F035FF10B1214B0022E3
:1022B0009A62009A294B2A4852F8041C1B684FF076
:1022C000240808FB04F840449847264B014626485A
:1022D0001B6840449847254B014625481B6800EB86
:1022E000C4009847D9F80010029003F061FC154B28
:1022F00000F10040196803F065FD029B49F8043BBA
:102300001C4B71681B68A86280461846029339E02E
:10231000280D00201C0D0020780700203333834156
:1023200050060020B8080020940C0020F80A002075
:10233000D00C0020A00B00201C0B0020400B002024
:102340008C0B0020F8040020000034C3000034434C
:10235000C40C00200000F0420000F0C2700A00200F
:10236000040A0020880700208C0A00208C07002027
:10237000740A0020480D0020080C0020040D0020E5
:102380009806002003F01EFD414603F01BFD4C4B58
:102390006863D3F818118046306803F013FD029B80
:1023A000194603F00FFDE969686003F003FC41463C
:1023B00003F000FCB38903938046184603F0AEFC9B
:1023C00000F100414046029103F09AFE029958B98B
:1023D000039B184603F09EFC01460290404603F022
:1023E000ADFE029900B94146084604F01DF8019B74
:1023F000013443F8040B032C019305F1040506F1A5
:1024000010067FF4FAAE9AF8043003F02103012B92
:1024100032D1FEF773FEFFF7EFFDFFF789FDFEF700
:102420009DFFDAF8B441274B274A001B1860938AB6
:10243000B0F5FA7F9ABF9BB243F008030023938262
:10244000224B5A6AB2F5FA7FFBD95A6942F001026F
:102450005A61FEF783FF1E4B001B1860FEF77EFFDC
:10246000CAF8B401D1E5FFF7C7F852E6DFF868B063
:10247000E4E6DFF868B0E1E6202BCCD1FEF7CCFE35
:10248000C9E713F0180FC8D1FEF7C6FEFFF7B4FD79
:10249000FFF730FD0F4ABAF8B01113685B1AB3F5B5
:1024A0007A7F08D908498B8A9BB283F008038B8214
:1024B0001368AAF8B0311068FDF7AAFEADE700BFB7
:1024C000F80400207C0B00200004004800140040A9
:1024D000180D0020140D0020000034C30000344308
:1024E0000288B2F57A7344BF6FF47873D318DB10A7
:1024F0007D3303807047084B1A79D20709D4074A05
:10250000116844F61F62914203D80548C3F8B80128
:1025100070474FF07E50F9E7F8040020140D0020BA
:102520000000C8422DE9F04F994DD5F8BC41D5F8CF
:1025300094A1C5F8BC0187B05146041B504603F076
:1025400041FC0021834603F035FBD5F898910646FF
:102550004946484603F036FC01460746304603F03C
:1025600029FBD5F89C8101904146404603F02AFCA6
:10257000019B01460646184603F01CFB4FF04E51E6
:1025800003F020FC8349019003F0D8FD0395002857
:1025900000F01A82019B8049184603F0B1FD031E2A
:1025A00018BF01230493204603F0B4FB7B497C4D04
:1025B00003F008FC0446286802F094FF70A3D3E9F6
:1025C000002302F0E7FF03F09FFA0190686802F031
:1025D00089FF6BA3D3E9002302F0DCFF03F094FA38
:1025E0000290A86802F07EFF65A3D3E9002302F001
:1025F000D1FF03F089FA01990546084603F0E2FB92
:1026000002990590084603F0DDFB059B014618463C
:1026100003F0D0FA29460590284603F0D3FB059B2A
:102620000146184603F0C6FA03F052FF049B0590DA
:10263000002B00F0CB813946584603F0BBFA3146F7
:1026400003F0B8FA5749064603F078FD002800F079
:10265000BD81554B4FF07C51A3EB6607304603F02C
:10266000B1FB394603F0AEFB394603F0ABFB014644
:102670004FF07F5003F09CFA394603F0A3FB51461C
:10268000064603F09FFB49468246304603F09AFB1C
:1026900041468146DFF81481304603F093FBD8F8B9
:1026A0002030049319460646484603F08BFBD8F8C1
:1026B0001CB007465946304603F084FB01463846B5
:1026C00003F076FA002103F075FAD8F8188007466F
:1026D0004146304603F076FB049B064619465046B9
:1026E00003F070FB0146304603F062FA002103F06C
:1026F00061FA59460646504603F064FB414682465D
:10270000484603F05FFB0146504603F051FA0021B2
:1027100003F050FA80460598DFF8749002F0E2FE6C
:1027200019A3D3E9002303F0A7F9002800F053818F
:102730001C49384603F046FB214603F043FBD9F819
:10274000C01103F037FA1749C9F8C001304603F049
:1027500039FB214603F036FBD9F8C41103F02AFAFD
:102760001049C9F8C401404603F02CFB214603F090
:1027700029FBD9F8C81103F01DFAC9F8C80117E000
:1027800011E7FAA146DF913FD5A0794A1857D63F05
:10279000F8040020295C4F3F48E19A3FBD37863559
:1027A000040D00200AD7233CDF59375FA00C00201E
:1027B000FFF7A1FE4FF07A5103F004FB814601467A
:1027C000384603F0FFFA039BD3F8C01103F0F2F987
:1027D000019903F0EFF949460746304603F0F2FA53
:1027E000039BD3F8C41103F0E5F9029903F0E2F971
:1027F00049460646404603F0E5FA039BD3F8C81164
:1028000003F0D8F9294603F0D5F94FF07C51804602
:10281000204603F0D7FA04460146384603F0D2FAC0
:1028200021460546304603F0CDFA214606466E4C59
:10283000404603F0C7FA636B01930746294603F14C
:10284000004003F0BFFAD4F838B0D4F83CA0D4F874
:10285000309080465946304603F0B4FA014640466F
:1028600003F0A6F951468046384603F0ABFA01461C
:10287000404603F09DF9494603F09CF94946039010
:10288000284603F09FFA59468046384603F09AFAE4
:102890000146404603F08EF951468046304603F02B
:1028A00091FA0146404603F083F9019B02931946D1
:1028B00003F080F949460190304603F083FA029B09
:1028C00080461946384603F07DFA0146404603F03B
:1028D0006FF951468046284603F074FA0146404697
:1028E00003F068F9594603F065F9494680463846D1
:1028F00003F068FA029B07461946304603F062FA75
:102900000146384603F056F959460646284603F074
:1029100059FA0146304603F04BF9514603F04AF9A3
:10292000039A029211460646104603F04BFA0199AB
:102930000546084603F046FA0146284603F03AF9F0
:1029400041460546404603F03DFA0146284603F05D
:1029500031F931460546304603F034FA014628463F
:1029600003F028F9214B4FF07C51A3EB600503F0F5
:1029700029FA294603F026FA294603F023FA0146EC
:102980004FF07F5003F014F9294603F01BFA029A26
:1029900005460146104603F015FA294620630198C2
:1029A00003F010FA29466063404603F00BFA29460B
:1029B000A063304603F006FAE063FEF788FF07B035
:1029C000BDE8F04FFFF7B2B80490ECE54FF0000817
:1029D000464647469FE60023C9F8C031C9F8C431CE
:1029E000C9F8C831E4E600BF00000020DF59375FB6
:1029F0000C4B0D4919610D490D4A99610D491A6039
:102A000059610D4A0D499A6019620D4A0D495A6083
:102A100099624FF4F57200219A819A8359629A85DE
:102A2000704700BFA00B00203D0AD73FA0ABAD3BD5
:102A30000AD7A33FB91E853C76029A3B9A999140EA
:102A400068D5673C90C2F53B13B500F031FA00F051
:102A500047FA2B4B2B4A1A6000F080FA6420FEF7ED
:102A600073FCFEF799F86420FEF76EFC00F080F925
:102A70006420FEF769FC00F07DF86420FEF764FC3A
:102A8000FEF73CFEFEF74AFE1F492048204CFEF7A9
:102A90004BFD2048FEF760F800231F4900934FF4D8
:102AA000FA721E4B1E48FDF7BFFE2046FEF76CFC77
:102AB000FDF7A0FFFDF78EFDA079FDF765FE00F0A4
:102AC000ABFA6420FEF740FC00F0D8FA6420FEF771
:102AD0003BFC00F06BFB6420FEF736FCFEF7F7FED4
:102AE0006420FEF731FCFEF79AF86420FEF72CFC18
:102AF000FFF77EFF0B4B0C4A1A6002B010BD00BFFF
:102B0000680700206D020008680B0020080C0020F8
:102B1000820B0020900700200000F041F304353FB5
:102B2000F80A0020F8040020FFFFF94410B50F4C0C
:102B30002268034612B1012A0CD010BD0C4AD1689C
:102B40008142FAD891680B44D360536898470123B7
:102B50002360F2E7064AD1698142EED891690B44BD
:102B6000D361536998470023F2E700BFD4060020E1
:102B7000540000202DE9F041012186B0022000F030
:102B800019FF0121042000F015FF0121202000F091
:102B900011FF01214FF4802000F0FEFE01214FF4CF
:102BA000003000F0F9FE022206214FF0904000F0C4
:102BB000EEFB022207214FF0904000F0E8FB6A4C48
:102BC0000A220B214FF0904000F0E1FB0A220C2179
:102BD0004FF0904000F0DBFB20460122082100F07E
:102BE000D6FB01222046092100F0D1FB40F202353C
:102BF0004FF4C65302A94FF09040CDE9023500F0E2
:102C000057FB4FF4407304A9204604F17844CDE902
:102C1000043500F04DFB204601F087FC20460021E2
:102C200001F072FD23889BB243F080032380A369E7
:102C300046F6680843EA0803A361236A4FF4FA657D
:102C400043F0110340F2D936082723622046278536
:102C50000121E5626663A66304F5806401F0A4FDCA
:102C6000204601F062FC2046002101F04DFD238842
:102C70009BB243F080032380A36943EA0803A36166
:102C8000E36943EA0803E361236A43F4885343F0AA
:102C900011032362012127852046E5626663A6634E
:102CA00004F59E3401F080FD204601F03EFC2388AF
:102CB0009BB243F080032380A36943F06803A361C0
:102CC000236A472640F69F7743F001032362268557
:102CD000E7626563636C43F400436364636943F0D4
:102CE000010363612046012104F5806401F05CFD6D
:102CF000204601F01AFC23889BB243F08003238016
:102D0000A36943F06803A361236A43F001032362CC
:102D10002685E7626563636C43F40043636463691B
:102D200043F0010301216361204601F03DFDA4F55C
:102D30009A340E4B019301A801F026F9204601F0C8
:102D4000F4FB23889BB243F0800323804FF6FF738C
:102D50002685E362002323610121204601F024FD42
:102D600006B0BDE8F08100BF00040048370505014A
:102D70001FB5234C0121084600F01CFE204601220D
:102D80000B2100F004FB4FF4006202A940F2023371
:102D90002046CDE9022300F08BFA1A4B019301A8DB
:102DA0004FF0804401F0F0F84FF0804001F0BDFB9F
:102DB00000214FF0804001F0A7FCE36943F48073E9
:102DC000E361E36943F48053E361236A43F480538E
:102DD0002362236A236200222046472101F091FCEE
:102DE00020464FF6FF7101F099FC01222046102188
:102DF00002F068F80121204601F0D6FC04B010BDB5
:102E0000000400481C0505010C4B4FF47A721B6846
:102E1000B3FBF2F3013BB3F1807F09D2084A536060
:102E2000084BF02183F823100023936007231360DD
:102E3000044B4FF47002C3F888207047B0000020A4
:102E400010E000E000ED00E080B5094B094A196888
:102E5000914200AF0AD100221A6062B6064B1B688D
:102E600083F30888054B1B689847FEE780BD00BFC9
:102E7000FC9F0020EFBEADDE00D8FF1F04D8FF1F6F
:102E8000014B024ADA60704700ED00E00400FA05E9
:102E9000034B044A1A60044B044ADA60704700BFCF
:102EA000FC9F0020EFBEADDE00ED00E00400FA055F
:102EB00007B501214FF4802000F060FD0823009346
:102EC00040F20133ADF804300448002369468DF820
:102ED000063000F0EDF903B05DF804FB0004004893
:102EE00007B501214FF4002000F048FD4FF40043E6
:102EF000009340F20133ADF80430054800236946E1
:102F00008DF8063000F0D4F903B05DF804FB00BF83
:102F100000080048064B1A68936890885B689BB26B
:102F200098423CBFD2888018C01A80B2704700BF58
:102F300074000020074B1A6810B59388D188064C9E
:102F4000C81A013B9BB2002B08BF0B46205C938044
:102F500010BD00BF74000020D806002070B501210C
:102F60008EB04FF4804000F017FD01214FF4003087
:102F700000F004FD072209214FF0904000F007FA0D
:102F800007220A214FF0904000F001FA204B214D1A
:102F90004FF4007269464FF09040CDE900230024C1
:102FA00000F086F94FF4806640F2023302A94FF038
:102FB0009040ADF80C3002968DF80E4000F078F994
:102FC000284600F083FD4FF4E133089304A90C2355
:102FD0002846CDE90B43CDE90944CDE905640D94BC
:102FE0000494079400F025FE08A9284600F0BCFDD3
:102FF0002846012100F031FE28460122802100F000
:1030000055FF01224021284600F050FF0EB070BD50
:10301000020300010038014010B50121144C8CB0AE
:10302000084600F0ABFC204602F01CF810220023FA
:1030300003928022ADF810300B930293089306920E
:1030400009930C4A0793059301A94FF400532046B6
:103050000A93019202F080F801220221204602F038
:10306000B6F8054B0093684600F08EFF0CB010BD1B
:1030700044000240283801400E05050110B5104CEF
:103080008CB0204601F0EEFF8022ADF810200692B1
:103090000C49029120220023099201A90A4A0393B4
:1030A00020460B9308930192079305930A9302F02D
:1030B00053F80121204602F07AF80CB010BD00BF91
:1030C00058000240D80600202438014070B586B070
:1030D0000D46144601A90A2203F0BCFA002206ABF1
:1030E000218853FA82F36E1813F8140C4B1C9BB210
:1030F0000132238018B92023337006B070BD6854A4
:10310000EDE7138873B514465A1C22802E22CA5448
:1031100006460D4603F032F802F000FE0146304646
:1031200002F046FD0021064602F0EAFF60B31749AF
:10313000304602F047FE03F021F80A2290FBF2F33A
:1031400002FB130093FBF2F102FB113330338DF8D5
:10315000053091FBF2F302FB1312303030328DF860
:1031600004008DF80620032301A82288013B511C8E
:103170002180195CA954002BF7D123885A1C228086
:103180002022EA5402B070BD0149D1E700007AC4A0
:1031900000007A4410B5013810F8013F03B910BDA2
:1031A00013885C1C14800478CC54F5E7044B1B682E
:1031B0004FF080120021C3E90012024A9A60704762
:1031C0007400002058000240B0F1904F08B50BD1B8
:1031D00001214FF4003000F0FBFB00214FF40030E0
:1031E000BDE8084000F0F4BB2A4B984208D1012109
:1031F0004FF4802000F0ECFB00214FF48020EFE73B
:10320000254B984208D101214FF4002000F0E0FB4B
:1032100000214FF40020E3E7204B984208D1012120
:103220004FF4801000F0D4FB00214FF48010D7E75A
:103230001B4B984208D101214FF4001000F0C8FB4D
:1032400000214FF40010CBE7164B984208D1012122
:103250004FF4800000F0BCFB00214FF48000BFE77A
:10326000114B984208D101214FF4000000F0B0FB4F
:1032700000214FF40000B3E70C4B984208D1012124
:103280004FF4803000F0A4FB00214FF48030A7E71A
:1032900008BD00BF0004004800080048000C0048BA
:1032A000001000480014004800180048001C0048A6
:1032B0002DE9F0430E6800220127032507FA02F8E2
:1032C00038EA060334D10C794FEA420C631E05FA42
:1032D0000CFE012B6FEA0E0E17D8836803EA0E036B
:1032E00083604B79D0F8089003FA0CF343EA0903A2
:1032F0008360838823EA080383808B79B0F8048095
:10330000934043EA08039BB28380036803EA0E03F9
:103310000360036804FA0CF41C430460C36805FAF4
:103320000CF423EA0404CB7903FA0CF32343C360BF
:103330000132102AC2D1BDE8F0834FF6FF724FF47C
:103340000073C0E90023704741F48033C361C16159
:10335000C361C369C3697047038A194214BF01205E
:1033600000207047008A7047838A194214BF0120E9
:1033700000207047808A70478161704701857047DF
:103380000AB181617047018570478182704701F001
:103390000703C90800EB810010B5016A9B000F24E8
:1033A0009C4021EA04010162016A9A400A430262D8
:1033B00010BD00BF114B1A6842F001021A60596833
:1033C0000F4A0A405A601A6822F0847222F480324E
:1033D0001A601A6822F480221A605A6822F4FE02E7
:1033E0005A60DA6A22F47F5222F03F02DA62196BE5
:1033F000044A0A401A6300229A6070470010024093
:1034000000C0FFF8CCEC000F024B00221A701870BD
:10341000704700BF02100240034A136823F0F8030C
:1034200043EAC0001060704700100240014B186072
:10343000704700BF00004242064B1A6A22F00102A8
:103440001A621A6A22F004021A621A6A1043186297
:10345000704700BF00100240044B1A6A22F01802A5
:103460001A621A6A10431862704700BF00100240C7
:10347000014B1860704700BF80044242044A536801
:1034800023F4741353605368194301435160704728
:1034900000100240014B1860704700BF60004242BC
:1034A000034AD36A23F00F031843D062704700BF6A
:1034B00000100240014B1860704700BF4C004242B0
:1034C000034A536823F0074343EA006050607047A3
:1034D00000100240034A536823F00303184350606E
:1034E000704700BF00100240024B586800F00C000B
:1034F000704700BF00100240034A536823F0F003F6
:1035000018435060704700BF00100240034A5368E0
:1035100023F4E06318435060704700BF001002407E
:10352000034A536823F4605343EAC0005060704775
:1035300000100240AD4B5A6802F00C02042A2DE93B
:10354000F04102D0082A00F0A580A94A02600024B8
:103550005A68A84FC2F30312BE5C0268F6B222FAA0
:1035600006F141605D68C5F3022517F805C021FA30
:103570000CFCC0F808C05D68C5F3C2257D5DEDB2E6
:10358000E940C160D3F82C804FEA181808F00F0EFC
:1035900007EB4E0E18F0100FBEF810E01FFA8EFE6B
:1035A00000F08D80BEF1000F00F08980B4FBFEFEBC
:1035B000C0F810E0D3F82CE04FEA5E2E0EF00F08B2
:1035C00007EB48071EF0100F3F8ABFB279D0002FDB
:1035D00077D0B4FBF7F74761D3F830E0844F1EF0A3
:1035E000100F0CBFBE469646C0F818E0D3F830E086
:1035F0001EF0200F0CBFBE469646C0F81CE0D3F864
:1036000030E01EF0400F18BF174607621F6BFF0522
:1036100059D5A24257D1AE4255D1570047621F6BD0
:10362000FF0452D5A24250D1AE424ED1570087621C
:103630001F6BBF054BD5A24249D1AE4247D15700BF
:10364000C7621F6B7F0544D5A24242D1AE4240D132
:103650005700C7641F6B3F053DD5A2423BD1AE4228
:1036600039D1570007651F6BBF0436D5A24234D14C
:10367000AE4232D1570047651F6B3F042FD5A2429F
:103680002DD1AE422BD1540084651C6BA40728D1E8
:1036900081632CE05C685A68D20349BFDA6A564AF3
:1036A000534902F00F02C4F3834448BF013204F1CE
:1036B000020448BFB1FBF2F25443046048E7964667
:1036C00076E7174687E70F46A8E70F46AFE70F46AE
:1036D000B6E70F46BDE70F46C4E70165CCE70C46E9
:1036E000D2E7196B01F0030101291AD18263196B2A
:1036F00011F4403F24D1C0F83CC0196B11F4402FA5
:1037000038D1C0F840C0196B11F4401F4CD1C0F83B
:1037100044C0196B11F4400F60D1C0F848C0BDE837
:10372000F081196B01F00301022902D14FF400412D
:10373000AEE7196B01F003010329D8D12C49A7E7A3
:10374000196B01F44031B1F5803F01D1C263D4E778
:10375000196B01F44031B1F5003F03D14FF4004142
:10376000C163CAE7196B01F44031B1F5403FC4D1E0
:103770001F49F5E7196B01F44021B1F5802F01D104
:103780000264C0E7196B01F44021B1F5002F03D1A9
:103790004FF400410164B6E7196B01F44021B1F523
:1037A000402FB0D11249F5E7196B01F44011B1F582
:1037B000801F01D14264ACE7196B01F44011B1F5EF
:1037C000001F03D14FF400414164A2E7196B01F4DB
:1037D0004011B1F5401F9CD10549F5E7196B01F483
:1037E0004001B1F5800F09D1826498E700100240D2
:1037F00000127A008000002000093D001A6B02F4DC
:103800004002B2F5000F03D14FF40043836486E712
:103810001B6B03F44003B3F5400F80D1004BF5E779
:1038200000127A00030F064BD96A14BF21F47851B5
:1038300021F4F871D962DA6A0243DA62704700BF94
:1038400000100240010F01290A4B0BD029B10229B7
:103850000CD01A6B02431A637047196B21F01001E8
:103860001963F6E7196B21F02001F9E7196B21F0D4
:103870004001F5E700100240020F174B072A09D854
:10388000DFE802F0040C1015191D21251A6B22F433
:1038900080721A631A6B02431A6370471A6B22F420
:1038A0000072F6E7196B21F480611963F2E7196B76
:1038B00021F40061F9E7196B21F40051F5E7196B68
:1038C00021F400411963196B21F080711963196BA0
:1038D00021F00071E9E700BF00100240044B1A6BB1
:1038E00022F480521A631A6B10431863704700BFAA
:1038F00000100240020F013A0F4B042A08D8DFE8FB
:1039000002F0030B0F131700196B21F00301196369
:103910001A6B02431A637047196B21F44031F6E7C2
:10392000196B21F44021F2E7196B21F44011EEE705
:10393000196B21F44001EAE700100240014B1860C6
:10394000704700BFD8004242024A136A184310620F
:10395000704700BF00100240014B1860704700BF65
:10396000DC004242014B1860704700BF3C044242F9
:10397000014B1860704700BF40044242054B19B12B
:1039800059690143596170475A6922EA00025A6134
:10399000704700BF00100240054B19B199690143FF
:1039A000996170479A6922EA00029A61704700BFE4
:1039B00000100240054B19B1D9690143D961704724
:1039C000DA6922EA0002DA61704700BF00100240A3
:1039D000054B19B1996A0143996270479A6A22EAC4
:1039E00000029A62704700BF00100240054B19B1F7
:1039F000D9680143D9607047DA6822EA0002DA60C8
:103A0000704700BF00100240054B19B1196901430E
:103A1000196170471A6922EA00021A61704700BFF3
:103A200000100240054B19B1197801431970704715
:103A30001A7822EA00021A70704700BF091002408B
:103A40004209094B07D11B6800F01F0023FA00F060
:103A500000F001007047012A01D11B6AF4E7042A33
:103A60000CBF5B685B6AEFE70010024007B50023FC
:103A700001931120FFF7E4FF019B01330193019BA8
:103A8000B3F5A04F01D00028F3D01120FFF7D8FFE5
:103A9000003018BF012003B05DF804FB024A536AEE
:103AA00043F080735362704700100240034B9B68E1
:103AB000184214BF01200020704700BF00100240D0
:103AC000014B1870704700BF0A10024008B5214B27
:103AD00098420BD101214FF48040FFF787FF00216E
:103AE0004FF48040BDE80840FFF780BF1A4B984272
:103AF0000BD101214FF40030FFF786FF00214FF476
:103B00000030BDE80840FFF77FBF144B984208D152
:103B100001214FF48020FFF777FF00214FF4802030
:103B2000EFE70F4B984208D101214FF40020FFF737
:103B30006BFF00214FF40020E3E70A4B984208D1C5
:103B400001214FF48010FFF75FFF00214FF4801038
:103B5000D7E708BD0038014000440040004800405D
:103B6000004C00400050004003688A6823F00103C5
:103B700030B50360436823F44053134343600D465C
:103B80004B68C96802680B43296922F4B05222F0DD
:103B90000C020B431343036083686A6923F4407388
:103BA000134399B08360044601A8FFF7C3FC174B89
:103BB0009C421BD10F9A23682968180448BF520001
:103BC000B2FBF1F301FB1322B2EB510F226828BFC5
:103BD0000133120406D5C3F3420223F00F031B0482
:103BE0001B0C13439BB2A38119B030BD084B9C4200
:103BF00001D1109ADFE7074B9C4201D1119ADAE715
:103C0000054B9C420CBF129A139AD4E7003801402E
:103C10000044004000480040004C004000234FF4A6
:103C20001652C0E900230C22C0E90233C0E9042384
:103C3000704710B5D1E9003423438C684268C968E5
:103C4000234322F470620B431343436010BD0023EF
:103C5000C0E90033C0E902337047036819B143F08B
:103C600001030360704723F00103FAE71AB1026809
:103C70000A4302607047036823EA01030360704748
:103C8000036819B143F400430360704723F4004311
:103C9000FAE7836819B143F400638360704723F443
:103CA0000063FAE7436819B143F4002343607047A7
:103CB00023F40023FAE7436819B143F480234360F7
:103CC000704723F48023FAE71AB142680A4342603E
:103CD0007047436823EA010343607047436819B1A2
:103CE00043F400434360704723F40043FAE743681A
:103CF00019B143F400034360704723F40003FAE76B
:103D0000436903F07F43436143691943416170474D
:103D1000038A03F47F430382038A194301827047B5
:103D2000036819B143F002030360704723F00203F4
:103D3000FAE7836823F44013836083681943816042
:103D40007047436819B143F480134360704723F40C
:103D50008013FAE7436823F4C003436043681943C0
:103D600041607047C1F3080101857047808CC0F342
:103D700008007047436823F07F434360436843EA89
:103D8000016141607047036819B143F40053036057
:103D9000704723F40053FAE7036823F400630360D9
:103DA0000368194301607047436823F010034360C0
:103DB0004368194341607047436823F02003436020
:103DC0004368194341607047436819B143F4804325
:103DD0004360704723F48043FAE7836819B143F0E6
:103DE00008038360704723F00803FAE7038ADBB215
:103DF0000382038A43EA012101827047836819B173
:103E000043F020038360704723F02003FAE78368C0
:103E100019B143F010038360704723F01003FAE7F1
:103E2000836823F460238360836843EA41418160AF
:103E30007047436923F07F434361436943EA01616B
:103E400041617047836823F00403836083681943EA
:103E500081607047836819B143F002038360704743
:103E600023F00203FAE7836819B143F480438360C7
:103E7000704723F48043FAE7836823F400438360A8
:103E80008368194381607047036823F07873036087
:103E9000036843EA415101607047036823F4F81353
:103EA0000360036843EA0141016070471AB1826808
:103EB0000A4382607047836823EA01038360704786
:103EC000836823F4005383608368194381607047DB
:103ED00010B5C1F30724CBB2022C4FF0010101FA57
:103EE00003F105D10430036832B11943016010BDFC
:103EF000032C08BF0830F6E723EA0101F6E789B290
:103F0000038B12B119430183704723EA0101FAE7D9
:103F1000836823F48053836083681943816070470A
:103F2000C3690B4214BF0120002070470162704733
:103F3000C1F3072210B50123CCB2012A03FA04F31E
:103F40000CD102681340C2696BB10123090C03FA5A
:103F500001F1114214BF1846002010BD022A0CBF07
:103F600042688268EEE71846F7E7090C01238B40A8
:103F70000362704740F0BF60024B40F40030D860ED
:103F8000704700BF00ED00E070B50178012501F039
:103F90001F039D40C3784C09C3B10F4BDA684378C7
:103FA000D243C2F30222C2F1040603FA06F6837872
:103FB0000F2020FA02F21340084A33431B01114438
:103FC000DBB281F8003342F8245070BD2034034B3B
:103FD00043F82450F9E700BF00ED00E000E100E005
:103FE00021F0604121F07F01014B0143996070474E
:103FF00000ED00E0054B19B11969014319617047E3
:104000001A6922EA00021A61704700BF00ED00E061
:10401000044B1A6804280CBF42F0040222F0040288
:104020001A60704710E000E0354B1A6842F0010258
:104030001A605968334A0A405A601A6822F084723A
:1040400022F480321A601A6822F480221A605A68B8
:1040500022F4FE025A60DA6A22F00F02DA62196B69
:10406000294A82B00A401A6300229A6000920192A3
:104070001A6842F480321A601A6802F4003201921F
:10408000009A01320092019A1AB9009AB2F5A04F33
:10409000F2D11A6812F4003218BF01220192019A7B
:1040A000012A26D1194A122111605A685A605A68A9
:1040B0005A605A6842F480625A605A6822F47C124C
:1040C0005A605A6842F4E8125A601A6842F08072E4
:1040D0001A601A689201FCD55A6822F003025A60ED
:1040E0005A6842F002025A605A6802F00C02082A2A
:1040F000FAD1074B4FF000629A6002B0704700BFE0
:10410000001002400CC07FF8CCFC00FF00200240F1
:1041100000ED00E0144A1549536803F00C03042B2A
:1041200010B501D0082B0AD0114B0B605368C3F3B4
:1041300003130B441A790B68D3400B6010BD53680E
:104140005068C00349BFD06A0A48094C00F00F000C
:10415000C3F3834348BF013003F1020348BFB4FBFC
:10416000F0F04343E1E700BF00100240B000002040
:1041700000127A0000093D0008B50C4B98424FF040
:1041800001010AD14FF40010FFF73EFC00214FF46B
:104190000010BDE80840FFF737BC4FF48000FFF780
:1041A00033FC00214FF48000F3E700BF00540040CF
:1041B0000368164A23F001030360036810B51A4030
:1041C000D1E9013443EA0423134303600B680A690D
:1041D00023F070630361036843F00103036000236D
:1041E0008360C3608B69134383608368CA6843F448
:1041F0000043836003681343036043684A6923F004
:10420000784323F400431343436010BDFFE0CF0025
:1042100000234FF40042C0E90033C0E902330361D8
:10422000C0E905237047036819B143F00103036037
:10423000704723F00103FAE7036823F001030360EA
:104240000368036843F00103036070471AB1026812
:104250000A4302607047036823EA01030360704762
:10426000036819B123F400330360704743F400334B
:10427000FAE7036819B143F480230360704723F41D
:104280008023FAE7C36819B143F40043C360704761
:1042900023F40043FAE7C368120223F4FF6302F435
:1042A000E06201F0FE0123F006030A431A43C260F4
:1042B0007047036819B143F400230360704723F487
:1042C0000023FAE7036819B143F4803303607047B1
:1042D00023F48033FAE7436823F47F7323F0030366
:1042E000C1F309010B4343607047436819B143F4BC
:1042F00000634360704723F40063FAE7436819B131
:1043000043F000734360704723F00073FAE743689B
:1043100019B143F080734360704723F08073FAE76C
:10432000436823F47F0343EA0141416070474368D7
:1043300019B923F480634360704743F48063FAE75C
:10434000436819B143F400534360704723F40053AA
:10435000FAE7436819B143F480434360704723F49C
:104360008043FAE7436819B143F4805343607047D0
:1043700023F48053FAE7436819B123F40043436000
:10438000704743F40043FAE78069000C00F0FE0038
:104390007047836913F4803F14BF4FF4806000209E
:1043A000704730B54568039C25F07F7525F4593575
:1043B000234325F47F7543EA0243C1F3090125F045
:1043C00003050B432B43436030BD036819B143F42D
:1043D00080030360704723F48003FAE7436919B14F
:1043E00043F400434361704723F40043FAE7436911
:1043F00019B143F000434361704723F00043FAE7EB
:10440000436919B143F480534361704723F48053E7
:10441000FAE7436923F47F6323F00F03C1F30B0131
:104420000B43436170474269044B22F07F6222F4E0
:10443000702203EA01411143416170470000FF0F00
:10444000036819B143F400030360704723F40003C9
:10445000FAE7036819B143F080630360704723F003
:104460008063FAE7006AC0B2704782B0002301930C
:104470000190019B19440191019B186802B070479B
:1044800081627047406AC0B27047FFF7DFBE836940
:104490000B4214BF012000207047C161704711F426
:1044A0007C5F036808D003F080038069084002D075
:1044B000181C18BF0120704711F0C00F14BF03F083
:1044C00040030B40F1E7C161704700BF30B5046A9B
:1044D00024F0010404628569046A25F0F30542EAC8
:1044E000031324F00A0441F001012B4321438361AB
:1044F000016230BD30B5046A24F010042404240C99
:1045000004628569046A090124F0A00412022404EB
:1045100041F0100125F4734542EA0333240C89B2BB
:104520002B4321438361016230BD08B5404B984263
:104530000BD101214FF40060FFF758FA00214FF42E
:104540000060BDE80840FFF751BAB0F1804F09D1D3
:1045500001210846FFF758FA00210120BDE8084074
:10456000FFF752BA334B984206D101210220FFF7E0
:104570004BFA00210220F1E72F4B984206D101218E
:104580000420FFF741FA00210420E7E72B4B984273
:1045900006D101211020FFF737FA00211020DDE7B6
:1045A000274B984206D101212020FFF72DFA002148
:1045B0002020D3E7234B984208D101214FF400502B
:1045C000FFF714FA00214FF40050BAE71E4B98424F
:1045D00008D101214FF48030FFF708FA00214FF491
:1045E0008030AEE7194B984208D101214FF40030DA
:1045F000FFF7FCF900214FF40030A2E7144B98427A
:1046000008D101214FF48020FFF7F0F900214FF489
:10461000802096E70F4B984208D101214FF480107B
:10462000FFF7E4F900214FF480108AE708BD00BFCE
:10463000002C014000040040000800400010004031
:10464000001400400034014000400140004401409B
:104650000048014000500140244A038890429BB228
:1046600012D002F5006290420ED0B0F1804F0BD014
:10467000A2F59832904207D002F58062904203D0B2
:1046800002F5A432904203D14A8823F07003134309
:10469000174A904208D002F5806290421FBF23F46F
:1046A00040730A899BB2134303804B68C3620B8833
:1046B00003850E4B984213D003F5006398420FD048
:1046C00003F5406398420BD003F58063984207D00E
:1046D00003F58063984203D003F50063984201D14B
:1046E0004B89038601234361704700BF002C0140C2
:1046F0000010004000234FF0FF32C0E90032836019
:104700007047018542617047038823F070031B04E2
:104710001B0C19430180704741627047C1627047AA
:10472000406A7047008D7047038819B143F0020357
:104730000380704723F002031B041B0CF8E7038877
:1047400019B143F004030380704723F004031B04F2
:104750001B0CF8E7038819B143F40063038070472A
:1047600023F400631B041B0CF8E7038819B143F022
:1047700080030380704723F080031B041B0CF8E7C1
:10478000038823F008031B041B0C038003881943D0
:1047900001807047038823F440731B041B0C0380C3
:1047A0000388194301807047038819B143F001035E
:1047B0000380704723F001031B041B0CF8E7036A16
:1047C00023F00103036270B5056A446882690B68CF
:1047D0008E8822F4803222F073021A438B8925F0EE
:1047E000020533432B43134DA8420FD005F5006556
:1047F000A8420BD005F54065A84207D005F58065B5
:10480000A84203D005F58065A8420DD123F0080524
:10481000CB894E8A2B43CD8823F004032B4324F409
:1048200040750C8A34432C43446082618A68426339
:10483000036270BD002C0140036A23F01003036281
:10484000036A426830B584690D6824F0807424F4EA
:10485000E64444EA05248D8923F0200343EA051346
:104860008D8843EA05130F4DA84203D005F5006576
:10487000A84211D1CD8923F0800343EA0513CD88E6
:1048800023F0400343EA05130D8A22F4406242EA12
:1048900085024D8A42EA850242608A6884618263A9
:1048A000036230BD002C0140036A23F4807303626D
:1048B000036A426830B5C4690D6824F073042C4360
:1048C0008D8923F4007343EA05238D8843EA052389
:1048D0000F4DA84203D005F50065A84211D1CD893E
:1048E00023F4006343EA0523CD8823F4806343EA7D
:1048F00005230D8A22F4405242EA05124D8A42EA0B
:10490000051242608A68C461C263036230BD00BFA1
:10491000002C0140036A23F480530362036A30B51C
:104920004468C2690D6822F4E64242EA05228D8994
:1049300023F4005343EA05338D8843EA0533094DD8
:10494000A84203D005F50065A84204D10D8A24F4DD
:10495000804444EA85144460C2618A680264036248
:1049600030BD00BF002C0140036A23F48033036292
:10497000036A30B54468426D0D6822F070022A4324
:104980008D8923F4003343EA05438D8843EA0543C8
:10499000084DA84203D005F50065A84204D10D8A50
:1049A00024F4803444EA0544446042658A688265A0
:1049B000036230BD002C0140036A23F480130362BC
:1049C000036A30B54468426D0D6822F4E04242EA61
:1049D00005228D8923F4001343EA05538D8843EAA9
:1049E0000553074DA84203D005F50065A84201D143
:1049F00024F40034446042658A68C265036230BDB5
:104A0000002C0140836D19B143F00053836570475A
:104A100023F00053FAE7836D19B143F080438365B7
:104A2000704723F08043FAE7836D19B143F00043E8
:104A30008365704723F00043FAE70023C0E90033A1
:104A4000C0E902330361704701238B4030B5DB437B
:104A5000056A9BB22B40036221F0080300F11804A1
:104A600053B949080B5923F4803323F070030B51D9
:104A70000B591A430A5130BD043949080B5923F028
:104A8000807323F4E0430B510B5943EA0222F1E710
:104A90004163704781637047C16370470164704729
:104AA00081657047C1657047836923F4803323F0C3
:104AB0007003194381617047836923F0807323F485
:104AC000E04343EA012181617047C36923F0700329
:104AD0001943C1617047C36923F4E04343EA0121EC
:104AE000C1617047436D23F07003194341657047FE
:104AF000436D23F4E04343EA012141657047836934
:104B000023F00803194381617047836923F400632C
:104B100043EA012181617047C36923F00803194307
:104B2000C1617047C36923F4006343EA0121C16195
:104B30007047436D23F00803194341657047436D87
:104B400023F4006343EA012141657047836923F040
:104B50000403194381617047836923F4806343EA46
:104B6000012181617047C36923F004031943C161C6
:104B70007047C36923F4806343EA0121C161704730
:104B8000836923F08003194381617047836923F4AB
:104B9000004343EA012181617047C36923F0800328
:104BA0001943C1617047C36923F4004343EA0121FB
:104BB000C1617047436D23F080031943416570471D
:104BC000436D23F4004343EA012141657047836844
:104BD00023F008031B041B0C836083681943816066
:104BE0007047036A23F00203194301627047036AA6
:104BF00023F00803194301627047036A23F020037E
:104C000043EA011101627047036A23F0800343EA1B
:104C1000011101627047036A23F4007343EA012122
:104C200001627047036A23F4006343EA01210162D1
:104C30007047036A23F4005343EA0131016270476D
:104C4000036A23F4003343EA014101627047036AB7
:104C500023F4001343EA015101627047036A10B55F
:104C600001248C4023EA04030362036A8A401A4346
:104C7000026210BD036A10B504248C4023EA0403C9
:104C80000362036A8A401A43026210BD00230122B4
:104C9000038043808280C38003817047406B7047EC
:104CA000806B7047C06B7047006C7047836923F05E
:104CB0000C0383618369194381617047836923F41D
:104CC00040638361836943EA012181617047F8B5DC
:104CD0000C464988A288B4F800C0238900290CBF7B
:104CE00002260026012A0CBF02270127BCF1000F73
:104CF0000ED1FFF7EBFBE188FFF7D8FF31462389A0
:104D00003A46FFF7F7FBE188BDE8F840FFF7D6BF6A
:104D1000FFF7F0FBE188FFF7D1FF314623893A46E0
:104D2000FFF7D4FBE188BDE8F840FFF7BFBFC369D8
:104D300023F00C031B041B0CC361C3691943C1613D
:104D40007047C36923F440631B041B0CC361C36930
:104D5000090289B21943C1617047F8B50D460E8842
:104D6000AA8849882B8936B9FFF7B0FBE988BDE8E6
:104D7000F840FFF79BBF042E06D1FFF7BBFBE98885
:104D8000BDE8F840FFF79ABF082EEF88056A1CD1EE
:104D900025F480752D042D0C0562C669056AB6B22E
:104DA000ADB226F0F30625F4206546EA031645EA7F
:104DB0000125B6B2ADB2164345F48075C6613946D9
:104DC0000562BDE8F840FFF7B2BF25F480552D0419
:104DD0002D0C0562C669056A26F4407625F4005557
:104DE00036056D04360D6D0C45EA013546EA02269E
:104DF00046EA0336ADB2B6B245F48055C6613946CF
:104E00000562BDE8F840FFF79CBF4A880B88134352
:104E10008A881343CA8813430A8913434A89134370
:104E20008A89134343647047436C23F472234364B9
:104E3000436C43EA02420A4342647047436C23F0E6
:104E40003C734364436C43EA02520A434264704732
:104E5000436C19B143F480534364704723F4805387
:104E6000FAE7436C19B143F080734364704723F051
:104E70008073FAE70023038043808380C38003812B
:104E8000438183817047436C19B143F40043436409
:104E90007047C3F30E03FAE7436819B143F0040304
:104EA0004360704723F004031B041B0CF8E74368BE
:104EB00019B143F001034360704723F001031B0461
:104EC0001B0CF8E7C36812B11943C1607047C943AE
:104ED00089B21940F9E74161704703690B4214BF79
:104EE000012000207047C94389B2016170470369FE
:104EF000C26811EA030003D0114214BF0120002050
:104F00007047C94389B2016170470A43A0F848203D
:104F10007047FFF7D7BF436819B143F008034360F8
:104F2000704723F008031B041B0CF8E7836823F089
:104F300007031B041B0C8360704782684FF68F7356
:104F4000134019438160836843F00703836070470F
:104F500038B50D46602D114604464FF001020CD1C4
:104F6000FFF7C8FAA2684FF68F7313401D43A56080
:104F7000A36843F00703A36038BDFFF7A7FAF1E782
:104F800082684FF68F7313401943816070474368FE
:104F900023F070031B041B0C4360436819434160FA
:104FA0007047436823F470034360436819434160CA
:104FB0007047836823F4803323F00703836083689A
:104FC000194381607047836823F080031B041B0C26
:104FD0008360836819438160704710B584680A4311
:104FE000E4B242EA03231C43A4B2846010BD10B5AE
:104FF000FFF7F3FF836823F077039BB243F0770357
:10500000836010BD10B5FFF7E8FF836843F4804369
:10501000836010BDF0B585688469076A4FF6F8763D
:105020002E404FF6FC4525404FF6DD743C4042EAE9
:10503000031345F480751C43314345F00105A4B2C8
:10504000816085610462F0BD436819B143F080035B
:105050004360704723F080031B041B0CF8E7A0F8A3
:1050600050107047036823F001031B041B0C0360FE
:105070000023036043608360C360294B984204D1DE
:10508000284A536843F00F0326E0274B984204D187
:10509000244A536843F0F0031EE0244B984204D1A5
:1050A000204A536843F4706316E0214B984204D1C0
:1050B0001C4A536843F470430EE01E4B984204D1DF
:1050C000184A536843F4702306E01B4B984205D1FD
:1050D000144A536843F4700353607047174B984267
:1050E00004D1104A536843F07063F5E7144B9842BB
:1050F00001D1144AC5E7144B984201D1114AC8E7BF
:10510000124B984201D10F4ACBE7114B984201D183
:105110000C4ACEE70F4B9842DFD10A4AD1E700BFD5
:1051200008000240000002401C0002403000024023
:1051300044000240580002406C00024080000240DF
:1051400008040240000402401C04024030040240F3
:1051500044040240580402408B68026810B50C6A8F
:1051600023430C6923434C6923438C692343CC6953
:1051700023434C6A23438C6A22F4FF4222F07002DC
:105180002343134303608B8943600B6883604B6840
:10519000C36010BD0023C0E9003383608381C0E990
:1051A0000433C0E90633C0E90833836270470368FB
:1051B00019B143F001030360704723F001031B049E
:1051C0001B0CF8E741607047406880B270471AB125
:1051D00002680A4302607047036823EA0103036020
:1051E0007047C3004CBF044B044B1B68034214BF01
:1051F00001200020704700BF000402400000024070
:10520000C3004CBF014B024B586070470004024082
:1052100000000240FFF7E5BFFFF7F2BF81F0004159
:1052200002E000BF83F0004330B54FEA41044FEA8B
:10523000430594EA050F08BF90EA020F1FBF54EA26
:10524000000C55EA020C7FEA645C7FEA655C00F0C2
:10525000E2804FEA5454D4EB5555B8BF6D420CDD93
:105260002C4480EA020281EA030382EA000083EA16
:10527000010180EA020281EA0303362D88BF30BDB6
:1052800011F0004F4FEA01314FF4801C4CEA11310C
:1052900002D0404261EB410113F0004F4FEA03336B
:1052A0004CEA133302D0524263EB430394EA050FF6
:1052B00000F0A780A4F10104D5F1200E0DDB02FA65
:1052C0000EFC22FA05F2801841F1000103FA0EF2F9
:1052D000801843FA05F359410EE0A5F120050EF1BF
:1052E000200E012A03FA0EFC28BF4CF0020C43FAF0
:1052F00005F3C01851EBE37101F0004507D54FF0FD
:10530000000EDCF1000C7EEB00006EEB0101B1F54C
:10531000801F1BD3B1F5001F0CD349085FEA300092
:105320004FEA3C0C04F101044FEA445212F5800F9D
:1053300080F09A80BCF1004F08BF5FEA500C50F13A
:10534000000041EB045141EA050130BD5FEA4C0C1D
:10535000404141EB0101013C28BFB1F5801FE9D27A
:1053600091F0000F04BF01460020B1FA81F308BF9D
:105370002033A3F10B03B3F120020CDA0C3208DD69
:1053800002F1140CC2F10C0201FA0CF021FA02F144
:105390000CE002F11402D8BFC2F1200C01FA02F1B4
:1053A00020FA0CFCDCBF41EA0C019040E41AA2BFD9
:1053B00001EB0451294330BD6FEA04041F3C1CDAA1
:1053C0000C340EDC04F11404C4F1200220FA04F0C1
:1053D00001FA02F340EA030021FA04F345EA03016B
:1053E00030BDC4F10C04C4F1200220FA02F001FA2D
:1053F00004F340EA0300294630BD21FA04F02946AF
:1054000030BD94F0000F83F4801306BF81F4801147
:105410000134013D4EE77FEA645C18BF7FEA655CBA
:1054200029D094EA050F08BF90EA020F05D054EA8C
:10543000000C04BF1946104630BD91EA030F1EBF91
:105440000021002030BD5FEA545C05D14000494195
:1054500028BF41F0004130BD14F580043CBF01F588
:10546000801130BD01F0004545F0FE4141F470016E
:105470004FF0000030BD7FEA645C1ABF1946104649
:105480007FEA655C1CBF0B46024650EA013406BF4A
:1054900052EA033591EA030F41F4002130BD00BF09
:1054A00090F0000F04BF0021704730B54FF48064C6
:1054B00004F132044FF000054FF0000150E700BF47
:1054C00090F0000F04BF0021704730B54FF48064A6
:1054D00004F1320410F0004548BF40424FF0000193
:1054E0003EE700BF42004FEAE2014FEA31014FEAD6
:1054F00002701FBF12F07F4393F07F4F81F0605125
:10550000704732F07F4208BF704793F07F4F04BF6F
:1055100041F40021704730B54FF4607401F000454C
:1055200021F000411CE700BF50EA010208BF7047AC
:1055300030B54FF000050AE050EA010208BF70479D
:1055400030B511F0004502D5404261EB41014FF406
:10555000806404F132045FEA915C3FF4D8AE4FF00E
:1055600003025FEADC0C18BF03325FEADC0C18BFF1
:10557000033202EBDC02C2F1200300FA03FC20FA42
:1055800002F001FA03FE40EA0E0021FA02F114448F
:10559000BDE600BF70B54FF0FF0C4CF4E06C1CEAA8
:1055A00011541DBF1CEA135594EA0C0F95EA0C0F19
:1055B00000F0DEF82C4481EA030621EA4C5123EA8C
:1055C0004C5350EA013518BF52EA033541F48011BB
:1055D00043F4801338D0A0FB02CE4FF00005E1FB6E
:1055E00002E506F00042E0FB03E54FF00006E1FBB8
:1055F00003569CF0000F18BF4EF0010EA4F1FF04FB
:10560000B6F5007F64F5407404D25FEA4E0E6D413A
:1056100046EB060642EAC62141EA55514FEAC5204B
:1056200040EA5E504FEACE2EB4F1FD0C88BFBCF5C7
:10563000E06F1ED8BEF1004F08BF5FEA500E50F178
:10564000000041EB045170BD06F0004646EA01013E
:1056500040EA020081EA0301B4EB5C04C2BFD4EB70
:105660000C0541EA045170BD41F480114FF0000E69
:10567000013C00F3AB8014F1360FDEBF002001F0D7
:10568000004170BDC4F10004203C35DA0C341BDC51
:1056900004F11404C4F1200500FA05F320FA04F023
:1056A00001FA05F240EA020001F0004221F0004157
:1056B00010EBD37021FA04F642EB06015EEA430ECA
:1056C00008BF20EAD37070BDC4F10C04C4F12005FA
:1056D00000FA04F320FA05F001FA04F240EA0200AD
:1056E00001F0004110EBD37041F100015EEA430E7E
:1056F00008BF20EAD37070BDC4F1200500FA05F29E
:105700004EEA020E20FA04F301FA05F243EA02031C
:1057100021FA04F001F0004121FA04F220EA02002B
:1057200000EBD3705EEA430E08BF20EAD37070BD71
:1057300094F0000F0FD101F00046400041EB010151
:1057400011F4801F08BF013CF7D041EA060195F033
:10575000000F18BF704703F00046520043EB0303ED
:1057600013F4801F08BF013DF7D043EA06037047DA
:1057700094EA0C0F0CEA135518BF95EA0C0F0CD0E5
:1057800050EA410618BF52EA4306D1D181EA03012B
:1057900001F000414FF0000070BD50EA410606BF25
:1057A0001046194652EA430619D094EA0C0F02D16A
:1057B00050EA013613D195EA0C0F05D152EA0336AF
:1057C0001CBF104619460AD181EA030101F00041CD
:1057D00041F0FE4141F470014FF0000070BD41F016
:1057E000FE4141F4780170BD70B54FF0FF0C4CF4F0
:1057F000E06C1CEA11541DBF1CEA135594EA0C0F0F
:1058000095EA0C0F00F0A7F8A4EB050481EA030E5B
:1058100052EA03354FEA013100F088804FEA033342
:105820004FF0805545EA131343EA12634FEA022210
:1058300045EA111545EA10654FEA00260EF00041D1
:105840009D4208BF964244F1FD0404F5407402D223
:105850005B084FEA3202B61A65EB03055B084FEAB4
:1058600032024FF480104FF4002CB6EB020E75EBB1
:10587000030E22BFB61A754640EA0C005B084FEAD9
:105880003202B6EB020E75EB030E22BFB61A754656
:1058900040EA5C005B084FEA3202B6EB020E75EBA1
:1058A000030E22BFB61A754640EA9C005B084FEA19
:1058B0003202B6EB020E75EB030E22BFB61A754626
:1058C00040EADC0055EA060E18D04FEA051545EA15
:1058D00016754FEA06164FEAC30343EA52734FEABE
:1058E000C2025FEA1C1CC0D111F4801F0BD141EA37
:1058F00000014FF000004FF0004CB6E711F4801F9C
:1059000004BF01430020B4F1FD0C88BFBCF5E06F7B
:105910003FF6AFAEB5EB030C04BFB6EB020C5FEA8B
:10592000500C50F1000041EB045170BD0EF0004EE0
:105930004EEA113114EB5C04C2BFD4EB0C0541EA12
:10594000045170BD41F480114FF0000E013C90E60F
:1059500045EA060E8DE60CEA135594EA0C0F08BFD3
:1059600095EA0C0F3FF43BAF94EA0C0F0AD150EAD2
:1059700001347FF434AF95EA0C0F7FF425AF104665
:1059800019462CE795EA0C0F06D152EA03353FF48D
:10599000FDAE1046194622E750EA410618BF52EA0A
:1059A00043067FF4C5AE50EA41047FF40DAF52EADE
:1059B00043057FF4EBAE12E74FF0FF3C06E000BF7B
:1059C0004FF0010C02E000BF4FF0010C4DF804CD88
:1059D0004FEA410C7FEA6C5C4FEA430C18BF7FEA48
:1059E0006C5C1BD001B050EA410C0CBF52EA430C76
:1059F00091EA030F02BF90EA020F0020704710F1F6
:105A0000000F91EA030F58BF994208BF90422CBF84
:105A1000D8176FEAE37040F0010070474FEA410C7D
:105A20007FEA6C5C02D150EA013C07D14FEA430C9B
:105A30007FEA6C5CD6D152EA033CD3D05DF8040B0C
:105A4000704700BF8446104662468C46194663463E
:105A500000E000BF01B5FFF7B7FF002848BF10F115
:105A6000000F01BD4DF808EDFFF7F4FF0CBF01205A
:105A700000205DF808FB00BF4DF808EDFFF7EAFFD6
:105A800034BF012000205DF808FB00BF4DF808ED91
:105A9000FFF7E0FF94BF012000205DF808FB00BF86
:105AA0004DF808EDFFF7CEFF94BF012000205DF810
:105AB00008FB00BF4DF808EDFFF7C4FF34BF01201D
:105AC00000205DF808FB00BF4A0011D212F5001259
:105AD00011D20DD56FF47873B3EB62520ED44FEA46
:105AE000C12343F0004343EA505323FA02F07047C6
:105AF0004FF00000704750EA013002D14FF0FF3004
:105B000070474FF0000070474FEA4102B2F1E043A6
